{
  "_format": "hh-sol-artifact-1",
  "contractName": "TrendPredictor",
  "sourceName": "contracts/TrendPredictor.sol",
  "abi": [
    {
      "inputs": [],
      "stateMutability": "nonpayable",
      "type": "constructor"
    },
    {
      "anonymous": false,
      "inputs": [
        {
          "indexed": false,
          "internalType": "uint256",
          "name": "id",
          "type": "uint256"
        },
        {
          "indexed": false,
          "internalType": "uint256",
          "name": "timestamp",
          "type": "uint256"
        },
        {
          "indexed": false,
          "internalType": "string",
          "name": "summary",
          "type": "string"
        },
        {
          "indexed": false,
          "internalType": "address",
          "name": "postedBy",
          "type": "address"
        }
      ],
      "name": "AnalysisLogged",
      "type": "event"
    },
    {
      "inputs": [
        {
          "internalType": "uint256",
          "name": "",
          "type": "uint256"
        }
      ],
      "name": "analyses",
      "outputs": [
        {
          "internalType": "uint256",
          "name": "id",
          "type": "uint256"
        },
        {
          "internalType": "uint256",
          "name": "timestamp",
          "type": "uint256"
        },
        {
          "internalType": "string",
          "name": "summary",
          "type": "string"
        },
        {
          "internalType": "address",
          "name": "postedBy",
          "type": "address"
        }
      ],
      "stateMutability": "view",
      "type": "function"
    },
    {
      "inputs": [
        {
          "internalType": "uint256",
          "name": "_id",
          "type": "uint256"
        }
      ],
      "name": "getAnalysis",
      "outputs": [
        {
          "internalType": "uint256",
          "name": "id",
          "type": "uint256"
        },
        {
          "internalType": "uint256",
          "name": "timestamp",
          "type": "uint256"
        },
        {
          "internalType": "string",
          "name": "summary",
          "type": "string"
        },
        {
          "internalType": "address",
          "name": "postedBy",
          "type": "address"
        }
      ],
      "stateMutability": "view",
      "type": "function"
    },
    {
      "inputs": [],
      "name": "getNextAnalysisId",
      "outputs": [
        {
          "internalType": "uint256",
          "name": "",
          "type": "uint256"
        }
      ],
      "stateMutability": "view",
      "type": "function"
    },
    {
      "inputs": [
        {
          "internalType": "string",
          "name": "_summary",
          "type": "string"
        }
      ],
      "name": "logAnalysis",
      "outputs": [],
      "stateMutability": "nonpayable",
      "type": "function"
    }
  ],
  "bytecode": "0x608060405234801561001057600080fd5b5060008081905550610b5d806100276000396000f3fe608060405234801561001057600080fd5b506004361061004c5760003560e01c80633d82da8e146100515780635170b9341461006f578063af56cc72146100a2578063dd5dcb1d146100d5575b600080fd5b6100596100f1565b6040516100669190610443565b60405180910390f35b6100896004803603810190610084919061049e565b6100fa565b604051610099949392919061059c565b60405180910390f35b6100bc60048036038101906100b7919061049e565b61022a565b6040516100cc949392919061059c565b60405180910390f35b6100ef60048036038101906100ea919061071d565b610302565b005b60008054905090565b6000806060600080548510610144576040517f08c379a000000000000000000000000000000000000000000000000000000000815260040161013b906107b2565b60405180910390fd5b600060016000878152602001908152602001600020905080600001548160010154826002018360030160009054906101000a900473ffffffffffffffffffffffffffffffffffffffff1681805461019a90610801565b80601f01602080910402602001604051908101604052809291908181526020018280546101c690610801565b80156102135780601f106101e857610100808354040283529160200191610213565b820191906000526020600020905b8154815290600101906020018083116101f657829003601f168201915b505050505091509450945094509450509193509193565b600160205280600052604060002060009150905080600001549080600101549080600201805461025990610801565b80601f016020809104026020016040519081016040528092919081815260200182805461028590610801565b80156102d25780601f106102a7576101008083540402835291602001916102d2565b820191906000526020600020905b8154815290600101906020018083116102b557829003601f168201915b5050505050908060030160009054906101000a900473ffffffffffffffffffffffffffffffffffffffff16905084565b6000805490506000429050600033905060405180608001604052808481526020018381526020018581526020018273ffffffffffffffffffffffffffffffffffffffff16815250600160008581526020019081526020016000206000820151816000015560208201518160010155604082015181600201908161038591906109de565b5060608201518160030160006101000a81548173ffffffffffffffffffffffffffffffffffffffff021916908373ffffffffffffffffffffffffffffffffffffffff1602179055509050506000808154809291906103e290610adf565b91905055507f74d310b9829d9f30029b8111caa77e656ea120c15567f74a84aec21cf1b9685b8383868460405161041c949392919061059c565b60405180910390a150505050565b6000819050919050565b61043d8161042a565b82525050565b60006020820190506104586000830184610434565b92915050565b6000604051905090565b600080fd5b600080fd5b61047b8161042a565b811461048657600080fd5b50565b60008135905061049881610472565b92915050565b6000602082840312156104b4576104b3610468565b5b60006104c284828501610489565b91505092915050565b600081519050919050565b600082825260208201905092915050565b60005b838110156105055780820151818401526020810190506104ea565b60008484015250505050565b6000601f19601f8301169050919050565b600061052d826104cb565b61053781856104d6565b93506105478185602086016104e7565b61055081610511565b840191505092915050565b600073ffffffffffffffffffffffffffffffffffffffff82169050919050565b60006105868261055b565b9050919050565b6105968161057b565b82525050565b60006080820190506105b16000830187610434565b6105be6020830186610434565b81810360408301526105d08185610522565b90506105df606083018461058d565b95945050505050565b600080fd5b600080fd5b7f4e487b7100000000000000000000000000000000000000000000000000000000600052604160045260246000fd5b61062a82610511565b810181811067ffffffffffffffff82111715610649576106486105f2565b5b80604052505050565b600061065c61045e565b90506106688282610621565b919050565b600067ffffffffffffffff821115610688576106876105f2565b5b61069182610511565b9050602081019050919050565b82818337600083830152505050565b60006106c06106bb8461066d565b610652565b9050828152602081018484840111156106dc576106db6105ed565b5b6106e784828561069e565b509392505050565b600082601f830112610704576107036105e8565b5b81356107148482602086016106ad565b91505092915050565b60006020828403121561073357610732610468565b5b600082013567ffffffffffffffff8111156107515761075061046d565b5b61075d848285016106ef565b91505092915050565b7f416e616c7973697320494420646f6573206e6f74206578697374000000000000600082015250565b600061079c601a836104d6565b91506107a782610766565b602082019050919050565b600060208201905081810360008301526107cb8161078f565b9050919050565b7f4e487b7100000000000000000000000000000000000000000000000000000000600052602260045260246000fd5b6000600282049050600182168061081957607f821691505b60208210810361082c5761082b6107d2565b5b50919050565b60008190508160005260206000209050919050565b60006020601f8301049050919050565b600082821b905092915050565b6000600883026108947fffffffffffffffffffffffffffffffffffffffffffffffffffffffffffffffff82610857565b61089e8683610857565b95508019841693508086168417925050509392505050565b6000819050919050565b60006108db6108d66108d18461042a565b6108b6565b61042a565b9050919050565b6000819050919050565b6108f5836108c0565b610909610901826108e2565b848454610864565b825550505050565b600090565b61091e610911565b6109298184846108ec565b505050565b5b8181101561094d57610942600082610916565b60018101905061092f565b5050565b601f8211156109925761096381610832565b61096c84610847565b8101602085101561097b578190505b61098f61098785610847565b83018261092e565b50505b505050565b600082821c905092915050565b60006109b560001984600802610997565b1980831691505092915050565b60006109ce83836109a4565b9150826002028217905092915050565b6109e7826104cb565b67ffffffffffffffff811115610a00576109ff6105f2565b5b610a0a8254610801565b610a15828285610951565b600060209050601f831160018114610a485760008415610a36578287015190505b610a4085826109c2565b865550610aa8565b601f198416610a5686610832565b60005b82811015610a7e57848901518255600182019150602085019450602081019050610a59565b86831015610a9b5784890151610a97601f8916826109a4565b8355505b6001600288020188555050505b505050505050565b7f4e487b7100000000000000000000000000000000000000000000000000000000600052601160045260246000fd5b6000610aea8261042a565b91507fffffffffffffffffffffffffffffffffffffffffffffffffffffffffffffffff8203610b1c57610b1b610ab0565b5b60018201905091905056fea264697066735822122027df18fd435772aec5ba90c70714f99673e17bb1398b020e4d083982e49bd93564736f6c63430008180033",
  "linkReferences": {},
  "deployedLinkReferences": {}
}